{
  "_format": "hh-sol-artifact-1",
  "contractName": "Staking",
  "sourceName": "contracts/Staking.sol",
  "abi": [
    {
      "inputs": [
        {
          "internalType": "uint256",
          "name": "currentEthPrice",
          "type": "uint256"
        }
      ],
      "stateMutability": "payable",
      "type": "constructor"
    },
    {
      "inputs": [
        {
          "internalType": "string",
          "name": "name",
          "type": "string"
        },
        {
          "internalType": "string",
          "name": "symbol",
          "type": "string"
        },
        {
          "internalType": "address",
          "name": "tokenAddress",
          "type": "address"
        },
        {
          "internalType": "uint256",
          "name": "usdPrice",
          "type": "uint256"
        },
        {
          "internalType": "uint256",
          "name": "apy",
          "type": "uint256"
        }
      ],
      "name": "addToken",
      "outputs": [],
      "stateMutability": "nonpayable",
      "type": "function"
    },
    {
      "inputs": [
        {
          "internalType": "uint256",
          "name": "apy",
          "type": "uint256"
        },
        {
          "internalType": "uint256",
          "name": "value",
          "type": "uint256"
        },
        {
          "internalType": "uint256",
          "name": "numberDays",
          "type": "uint256"
        }
      ],
      "name": "calculateInterest",
      "outputs": [
        {
          "internalType": "uint256",
          "name": "",
          "type": "uint256"
        }
      ],
      "stateMutability": "pure",
      "type": "function"
    },
    {
      "inputs": [
        {
          "internalType": "uint256",
          "name": "createdDate",
          "type": "uint256"
        }
      ],
      "name": "calculateNumberDays",
      "outputs": [
        {
          "internalType": "uint256",
          "name": "",
          "type": "uint256"
        }
      ],
      "stateMutability": "view",
      "type": "function"
    },
    {
      "inputs": [
        {
          "internalType": "uint256",
          "name": "positionId",
          "type": "uint256"
        }
      ],
      "name": "closePosition",
      "outputs": [],
      "stateMutability": "nonpayable",
      "type": "function"
    },
    {
      "inputs": [],
      "name": "currentPositionId",
      "outputs": [
        {
          "internalType": "uint256",
          "name": "",
          "type": "uint256"
        }
      ],
      "stateMutability": "view",
      "type": "function"
    },
    {
      "inputs": [],
      "name": "currentTokenId",
      "outputs": [
        {
          "internalType": "uint256",
          "name": "",
          "type": "uint256"
        }
      ],
      "stateMutability": "view",
      "type": "function"
    },
    {
      "inputs": [],
      "name": "ethUsdPrice",
      "outputs": [
        {
          "internalType": "uint256",
          "name": "",
          "type": "uint256"
        }
      ],
      "stateMutability": "view",
      "type": "function"
    },
    {
      "inputs": [
        {
          "internalType": "uint256",
          "name": "positionId",
          "type": "uint256"
        }
      ],
      "name": "getPositionById",
      "outputs": [
        {
          "components": [
            {
              "internalType": "uint256",
              "name": "positionId",
              "type": "uint256"
            },
            {
              "internalType": "address",
              "name": "walletAddress",
              "type": "address"
            },
            {
              "internalType": "string",
              "name": "name",
              "type": "string"
            },
            {
              "internalType": "string",
              "name": "symbol",
              "type": "string"
            },
            {
              "internalType": "uint256",
              "name": "createdDate",
              "type": "uint256"
            },
            {
              "internalType": "uint256",
              "name": "apy",
              "type": "uint256"
            },
            {
              "internalType": "uint256",
              "name": "tokenQuantity",
              "type": "uint256"
            },
            {
              "internalType": "uint256",
              "name": "usdValue",
              "type": "uint256"
            },
            {
              "internalType": "uint256",
              "name": "ethValue",
              "type": "uint256"
            },
            {
              "internalType": "bool",
              "name": "open",
              "type": "bool"
            }
          ],
          "internalType": "struct Staking.Position",
          "name": "",
          "type": "tuple"
        }
      ],
      "stateMutability": "view",
      "type": "function"
    },
    {
      "inputs": [],
      "name": "getPositionIdsForAddress",
      "outputs": [
        {
          "internalType": "uint256[]",
          "name": "",
          "type": "uint256[]"
        }
      ],
      "stateMutability": "view",
      "type": "function"
    },
    {
      "inputs": [
        {
          "internalType": "string",
          "name": "tokenSymbol",
          "type": "string"
        }
      ],
      "name": "getToken",
      "outputs": [
        {
          "components": [
            {
              "internalType": "uint256",
              "name": "tokenId",
              "type": "uint256"
            },
            {
              "internalType": "string",
              "name": "name",
              "type": "string"
            },
            {
              "internalType": "string",
              "name": "symbol",
              "type": "string"
            },
            {
              "internalType": "address",
              "name": "tokenAddress",
              "type": "address"
            },
            {
              "internalType": "uint256",
              "name": "usdPrice",
              "type": "uint256"
            },
            {
              "internalType": "uint256",
              "name": "ethPrice",
              "type": "uint256"
            },
            {
              "internalType": "uint256",
              "name": "apy",
              "type": "uint256"
            }
          ],
          "internalType": "struct Staking.Token",
          "name": "",
          "type": "tuple"
        }
      ],
      "stateMutability": "view",
      "type": "function"
    },
    {
      "inputs": [],
      "name": "getTokenSymbols",
      "outputs": [
        {
          "internalType": "string[]",
          "name": "",
          "type": "string[]"
        }
      ],
      "stateMutability": "view",
      "type": "function"
    },
    {
      "inputs": [
        {
          "internalType": "uint256",
          "name": "positionId",
          "type": "uint256"
        },
        {
          "internalType": "uint256",
          "name": "newCreatedDate",
          "type": "uint256"
        }
      ],
      "name": "modifyCreatedDate",
      "outputs": [],
      "stateMutability": "nonpayable",
      "type": "function"
    },
    {
      "inputs": [],
      "name": "owner",
      "outputs": [
        {
          "internalType": "address",
          "name": "",
          "type": "address"
        }
      ],
      "stateMutability": "view",
      "type": "function"
    },
    {
      "inputs": [
        {
          "internalType": "address",
          "name": "",
          "type": "address"
        },
        {
          "internalType": "uint256",
          "name": "",
          "type": "uint256"
        }
      ],
      "name": "positionIdByAddress",
      "outputs": [
        {
          "internalType": "uint256",
          "name": "",
          "type": "uint256"
        }
      ],
      "stateMutability": "view",
      "type": "function"
    },
    {
      "inputs": [
        {
          "internalType": "uint256",
          "name": "",
          "type": "uint256"
        }
      ],
      "name": "positions",
      "outputs": [
        {
          "internalType": "uint256",
          "name": "positionId",
          "type": "uint256"
        },
        {
          "internalType": "address",
          "name": "walletAddress",
          "type": "address"
        },
        {
          "internalType": "string",
          "name": "name",
          "type": "string"
        },
        {
          "internalType": "string",
          "name": "symbol",
          "type": "string"
        },
        {
          "internalType": "uint256",
          "name": "createdDate",
          "type": "uint256"
        },
        {
          "internalType": "uint256",
          "name": "apy",
          "type": "uint256"
        },
        {
          "internalType": "uint256",
          "name": "tokenQuantity",
          "type": "uint256"
        },
        {
          "internalType": "uint256",
          "name": "usdValue",
          "type": "uint256"
        },
        {
          "internalType": "uint256",
          "name": "ethValue",
          "type": "uint256"
        },
        {
          "internalType": "bool",
          "name": "open",
          "type": "bool"
        }
      ],
      "stateMutability": "view",
      "type": "function"
    },
    {
      "inputs": [
        {
          "internalType": "string",
          "name": "symbol",
          "type": "string"
        },
        {
          "internalType": "uint256",
          "name": "tokenQuantity",
          "type": "uint256"
        }
      ],
      "name": "stakeTokens",
      "outputs": [],
      "stateMutability": "nonpayable",
      "type": "function"
    },
    {
      "inputs": [
        {
          "internalType": "string",
          "name": "",
          "type": "string"
        }
      ],
      "name": "stakedTokens",
      "outputs": [
        {
          "internalType": "uint256",
          "name": "",
          "type": "uint256"
        }
      ],
      "stateMutability": "view",
      "type": "function"
    },
    {
      "inputs": [
        {
          "internalType": "uint256",
          "name": "",
          "type": "uint256"
        }
      ],
      "name": "tokenSymbols",
      "outputs": [
        {
          "internalType": "string",
          "name": "",
          "type": "string"
        }
      ],
      "stateMutability": "view",
      "type": "function"
    },
    {
      "inputs": [
        {
          "internalType": "string",
          "name": "",
          "type": "string"
        }
      ],
      "name": "tokens",
      "outputs": [
        {
          "internalType": "uint256",
          "name": "tokenId",
          "type": "uint256"
        },
        {
          "internalType": "string",
          "name": "name",
          "type": "string"
        },
        {
          "internalType": "string",
          "name": "symbol",
          "type": "string"
        },
        {
          "internalType": "address",
          "name": "tokenAddress",
          "type": "address"
        },
        {
          "internalType": "uint256",
          "name": "usdPrice",
          "type": "uint256"
        },
        {
          "internalType": "uint256",
          "name": "ethPrice",
          "type": "uint256"
        },
        {
          "internalType": "uint256",
          "name": "apy",
          "type": "uint256"
        }
      ],
      "stateMutability": "view",
      "type": "function"
    }
  ],
  "bytecode": "0x608060405260018055600160055560405162002eeb38038062002eeb8339818101604052810190620000329190620000c0565b80600281905550336000806101000a81548173ffffffffffffffffffffffffffffffffffffffff021916908373ffffffffffffffffffffffffffffffffffffffff16021790555050620000f2565b600080fd5b6000819050919050565b6200009a8162000085565b8114620000a657600080fd5b50565b600081519050620000ba816200008f565b92915050565b600060208284031215620000d957620000d862000080565b5b6000620000e984828501620000a9565b91505092915050565b612de980620001026000396000f3fe608060405234801561001057600080fd5b50600436106101205760003560e01c80636e7ddea8116100ad57806399fbab881161007157806399fbab8814610323578063a126d6011461035c578063b838ec8614610378578063c1733f68146103a8578063c41cc502146103d857610120565b80636e7ddea81461027f57806371d772ca146102af5780638da5cb5b146102cb5780639478ab8c146102e957806394b308ab1461030757610120565b80631131c8cd116100f45780631131c8cd146101c75780632406b5c0146101e557806327f70655146102155780634088f204146102315780634b4ea9541461026157610120565b80629a9b7b1461012557806304c2320b1461014357806305b938161461017957806305e1bd8c14610197575b600080fd5b61012d610408565b60405161013a91906119d1565b60405180910390f35b61015d60048036038101906101589190611b46565b61040e565b6040516101709796959493929190611c4f565b60405180910390f35b610181610596565b60405161018e9190611dd8565b60405180910390f35b6101b160048036038101906101ac9190611e26565b61066f565b6040516101be91906119d1565b60405180910390f35b6101cf6106ab565b6040516101dc91906119d1565b60405180910390f35b6101ff60048036038101906101fa9190611e79565b6106b1565b60405161020c91906119d1565b60405180910390f35b61022f600480360381019061022a9190611ea6565b6106e9565b005b61024b60048036038101906102469190611f12565b610796565b60405161025891906119d1565b60405180910390f35b6102696107c7565b6040516102769190612010565b60405180910390f35b61029960048036038101906102949190611e79565b61085c565b6040516102a69190612032565b60405180910390f35b6102c960048036038101906102c491906120b4565b610908565b005b6102d3610db5565b6040516102e09190612114565b60405180910390f35b6102f1610dd9565b6040516102fe91906119d1565b60405180910390f35b610321600480360381019061031c919061212f565b610ddf565b005b61033d60048036038101906103389190611e79565b61106b565b6040516103539a99989796959493929190612206565b60405180910390f35b61037660048036038101906103719190611e79565b6111fc565b005b610392600480360381019061038d9190611e79565b6114f0565b60405161039f91906123af565b60405180910390f35b6103c260048036038101906103bd91906123d1565b6116ef565b6040516103cf91906124c1565b60405180910390f35b6103f260048036038101906103ed9190611b46565b6118cc565b6040516103ff91906119d1565b60405180910390f35b60015481565b60048180516020810182018051848252602083016020850120818352809550505050505060009150905080600001549080600101805461044d90612512565b80601f016020809104026020016040519081016040528092919081815260200182805461047990612512565b80156104c65780601f1061049b576101008083540402835291602001916104c6565b820191906000526020600020905b8154815290600101906020018083116104a957829003601f168201915b5050505050908060020180546104db90612512565b80601f016020809104026020016040519081016040528092919081815260200182805461050790612512565b80156105545780601f1061052957610100808354040283529160200191610554565b820191906000526020600020905b81548152906001019060200180831161053757829003601f168201915b5050505050908060030160009054906101000a900473ffffffffffffffffffffffffffffffffffffffff16908060040154908060050154908060060154905087565b60606003805480602002602001604051908101604052809291908181526020016000905b828210156106665783829060005260206000200180546105d990612512565b80601f016020809104026020016040519081016040528092919081815260200182805461060590612512565b80156106525780601f1061062757610100808354040283529160200191610652565b820191906000526020600020905b81548152906001019060200180831161063557829003601f168201915b5050505050815260200190600101906105ba565b50505050905090565b600061016d6127108385876106849190612572565b61068e9190612572565b61069891906125e3565b6106a291906125e3565b90509392505050565b60055481565b60006018603c8084426106c49190612614565b6106ce91906125e3565b6106d891906125e3565b6106e291906125e3565b9050919050565b3373ffffffffffffffffffffffffffffffffffffffff1660008054906101000a900473ffffffffffffffffffffffffffffffffffffffff1673ffffffffffffffffffffffffffffffffffffffff1614610777576040517f08c379a000000000000000000000000000000000000000000000000000000000815260040161076e906126ba565b60405180910390fd5b8060066000848152602001908152602001600020600401819055505050565b600760205281600052604060002081815481106107b257600080fd5b90600052602060002001600091509150505481565b6060600760003373ffffffffffffffffffffffffffffffffffffffff1673ffffffffffffffffffffffffffffffffffffffff16815260200190815260200160002080548060200260200160405190810160405280929190818152602001828054801561085257602002820191906000526020600020905b81548152602001906001019080831161083e575b5050505050905090565b6003818154811061086c57600080fd5b90600052602060002001600091509050805461088790612512565b80601f01602080910402602001604051908101604052809291908181526020018280546108b390612512565b80156109005780601f106108d557610100808354040283529160200191610900565b820191906000526020600020905b8154815290600101906020018083116108e357829003601f168201915b505050505081565b60006004848460405161091c92919061270a565b9081526020016040518091039020600001540361096e576040517f08c379a00000000000000000000000000000000000000000000000000000000081526004016109659061276f565b60405180910390fd5b6004838360405161098092919061270a565b908152602001604051809103902060030160009054906101000a900473ffffffffffffffffffffffffffffffffffffffff1673ffffffffffffffffffffffffffffffffffffffff166323b872dd3330846040518463ffffffff1660e01b81526004016109ee9392919061278f565b6020604051808303816000875af1158015610a0d573d6000803e3d6000fd5b505050506040513d601f19601f82011682018060405250810190610a3191906127f2565b5060405180610140016040528060055481526020013373ffffffffffffffffffffffffffffffffffffffff16815260200160048585604051610a7492919061270a565b90815260200160405180910390206001018054610a9090612512565b80601f0160208091040260200160405190810160405280929190818152602001828054610abc90612512565b8015610b095780601f10610ade57610100808354040283529160200191610b09565b820191906000526020600020905b815481529060010190602001808311610aec57829003601f168201915b5050505050815260200184848080601f016020809104026020016040519081016040528093929190818152602001838380828437600081840152601f19601f82011690508083019250505050505050815260200142815260200160048585604051610b7592919061270a565b90815260200160405180910390206006015481526020018281526020018260048686604051610ba592919061270a565b908152602001604051809103902060040154610bc19190612572565b81526020016002548360048787604051610bdc92919061270a565b908152602001604051809103902060040154610bf89190612572565b610c0291906125e3565b8152602001600115158152506006600060055481526020019081526020016000206000820151816000015560208201518160010160006101000a81548173ffffffffffffffffffffffffffffffffffffffff021916908373ffffffffffffffffffffffffffffffffffffffff1602179055506040820151816002019081610c8991906129cb565b506060820151816003019081610c9f91906129cb565b506080820151816004015560a0820151816005015560c0820151816006015560e0820151816007015561010082015181600801556101208201518160090160006101000a81548160ff021916908315150217905550905050600760003373ffffffffffffffffffffffffffffffffffffffff1673ffffffffffffffffffffffffffffffffffffffff1681526020019081526020016000206005549080600181540180825580915050600190039060005260206000200160009091909190915055600160056000828254610d729190612a9d565b925050819055508060088484604051610d8c92919061270a565b90815260200160405180910390206000828254610da99190612a9d565b92505081905550505050565b60008054906101000a900473ffffffffffffffffffffffffffffffffffffffff1681565b60025481565b3373ffffffffffffffffffffffffffffffffffffffff1660008054906101000a900473ffffffffffffffffffffffffffffffffffffffff1673ffffffffffffffffffffffffffffffffffffffff1614610e6d576040517f08c379a0000000000000000000000000000000000000000000000000000000008152600401610e64906126ba565b60405180910390fd5b6003858590918060018154018082558091505060019003906000526020600020016000909192909192909192909192509182610eaa929190612adc565b506040518060e00160405280600154815260200188888080601f016020809104026020016040519081016040528093929190818152602001838380828437600081840152601f19601f82011690508083019250505050505050815260200186868080601f016020809104026020016040519081016040528093929190818152602001838380828437600081840152601f19601f8201169050808301925050505050505081526020018473ffffffffffffffffffffffffffffffffffffffff16815260200183815260200160025484610f8291906125e3565b81526020018281525060048686604051610f9d92919061270a565b9081526020016040518091039020600082015181600001556020820151816001019081610fca91906129cb565b506040820151816002019081610fe091906129cb565b5060608201518160030160006101000a81548173ffffffffffffffffffffffffffffffffffffffff021916908373ffffffffffffffffffffffffffffffffffffffff1602179055506080820151816004015560a0820151816005015560c08201518160060155905050600180600082825461105b9190612a9d565b9250508190555050505050505050565b60066020528060005260406000206000915090508060000154908060010160009054906101000a900473ffffffffffffffffffffffffffffffffffffffff16908060020180546110ba90612512565b80601f01602080910402602001604051908101604052809291908181526020018280546110e690612512565b80156111335780601f1061110857610100808354040283529160200191611133565b820191906000526020600020905b81548152906001019060200180831161111657829003601f168201915b50505050509080600301805461114890612512565b80601f016020809104026020016040519081016040528092919081815260200182805461117490612512565b80156111c15780601f10611196576101008083540402835291602001916111c1565b820191906000526020600020905b8154815290600101906020018083116111a457829003601f168201915b5050505050908060040154908060050154908060060154908060070154908060080154908060090160009054906101000a900460ff1690508a565b3373ffffffffffffffffffffffffffffffffffffffff166006600083815260200190815260200160002060010160009054906101000a900473ffffffffffffffffffffffffffffffffffffffff1673ffffffffffffffffffffffffffffffffffffffff16146112a0576040517f08c379a000000000000000000000000000000000000000000000000000000000815260040161129790612c1e565b60405180910390fd5b600115156006600083815260200190815260200160002060090160009054906101000a900460ff1615151461130a576040517f08c379a000000000000000000000000000000000000000000000000000000000815260040161130190612c8a565b60405180910390fd5b60006006600083815260200190815260200160002060090160006101000a81548160ff02191690831515021790555060046006600083815260200190815260200160002060030160405161135e9190612d2d565b908152602001604051809103902060030160009054906101000a900473ffffffffffffffffffffffffffffffffffffffff1673ffffffffffffffffffffffffffffffffffffffff1663a9059cbb3360066000858152602001908152602001600020600601546040518363ffffffff1660e01b81526004016113e0929190612d44565b6020604051808303816000875af11580156113ff573d6000803e3d6000fd5b505050506040513d601f19601f8201168201806040525081019061142391906127f2565b50600061144560066000848152602001908152602001600020600401546106b1565b90506000611480600660008581526020019081526020016000206005015460066000868152602001908152602001600020600801548461066f565b90503373ffffffffffffffffffffffffffffffffffffffff16816040516114a690612d9e565b60006040518083038185875af1925050503d80600081146114e3576040519150601f19603f3d011682016040523d82523d6000602084013e6114e8565b606091505b505050505050565b6114f86118fa565b6006600083815260200190815260200160002060405180610140016040529081600082015481526020016001820160009054906101000a900473ffffffffffffffffffffffffffffffffffffffff1673ffffffffffffffffffffffffffffffffffffffff1673ffffffffffffffffffffffffffffffffffffffff16815260200160028201805461158790612512565b80601f01602080910402602001604051908101604052809291908181526020018280546115b390612512565b80156116005780601f106115d557610100808354040283529160200191611600565b820191906000526020600020905b8154815290600101906020018083116115e357829003601f168201915b5050505050815260200160038201805461161990612512565b80601f016020809104026020016040519081016040528092919081815260200182805461164590612512565b80156116925780601f1061166757610100808354040283529160200191611692565b820191906000526020600020905b81548152906001019060200180831161167557829003601f168201915b5050505050815260200160048201548152602001600582015481526020016006820154815260200160078201548152602001600882015481526020016009820160009054906101000a900460ff1615151515815250509050919050565b6116f7611965565b6004838360405161170992919061270a565b90815260200160405180910390206040518060e00160405290816000820154815260200160018201805461173c90612512565b80601f016020809104026020016040519081016040528092919081815260200182805461176890612512565b80156117b55780601f1061178a576101008083540402835291602001916117b5565b820191906000526020600020905b81548152906001019060200180831161179857829003601f168201915b505050505081526020016002820180546117ce90612512565b80601f01602080910402602001604051908101604052809291908181526020018280546117fa90612512565b80156118475780601f1061181c57610100808354040283529160200191611847565b820191906000526020600020905b81548152906001019060200180831161182a57829003601f168201915b505050505081526020016003820160009054906101000a900473ffffffffffffffffffffffffffffffffffffffff1673ffffffffffffffffffffffffffffffffffffffff1673ffffffffffffffffffffffffffffffffffffffff1681526020016004820154815260200160058201548152602001600682015481525050905092915050565b6008818051602081018201805184825260208301602085012081835280955050505050506000915090505481565b60405180610140016040528060008152602001600073ffffffffffffffffffffffffffffffffffffffff168152602001606081526020016060815260200160008152602001600081526020016000815260200160008152602001600081526020016000151581525090565b6040518060e00160405280600081526020016060815260200160608152602001600073ffffffffffffffffffffffffffffffffffffffff1681526020016000815260200160008152602001600081525090565b6000819050919050565b6119cb816119b8565b82525050565b60006020820190506119e660008301846119c2565b92915050565b6000604051905090565b600080fd5b600080fd5b600080fd5b600080fd5b6000601f19601f8301169050919050565b7f4e487b7100000000000000000000000000000000000000000000000000000000600052604160045260246000fd5b611a5382611a0a565b810181811067ffffffffffffffff82111715611a7257611a71611a1b565b5b80604052505050565b6000611a856119ec565b9050611a918282611a4a565b919050565b600067ffffffffffffffff821115611ab157611ab0611a1b565b5b611aba82611a0a565b9050602081019050919050565b82818337600083830152505050565b6000611ae9611ae484611a96565b611a7b565b905082815260208101848484011115611b0557611b04611a05565b5b611b10848285611ac7565b509392505050565b600082601f830112611b2d57611b2c611a00565b5b8135611b3d848260208601611ad6565b91505092915050565b600060208284031215611b5c57611b5b6119f6565b5b600082013567ffffffffffffffff811115611b7a57611b796119fb565b5b611b8684828501611b18565b91505092915050565b600081519050919050565b600082825260208201905092915050565b60005b83811015611bc9578082015181840152602081019050611bae565b60008484015250505050565b6000611be082611b8f565b611bea8185611b9a565b9350611bfa818560208601611bab565b611c0381611a0a565b840191505092915050565b600073ffffffffffffffffffffffffffffffffffffffff82169050919050565b6000611c3982611c0e565b9050919050565b611c4981611c2e565b82525050565b600060e082019050611c64600083018a6119c2565b8181036020830152611c768189611bd5565b90508181036040830152611c8a8188611bd5565b9050611c996060830187611c40565b611ca660808301866119c2565b611cb360a08301856119c2565b611cc060c08301846119c2565b98975050505050505050565b600081519050919050565b600082825260208201905092915050565b6000819050602082019050919050565b600082825260208201905092915050565b6000611d1482611b8f565b611d1e8185611cf8565b9350611d2e818560208601611bab565b611d3781611a0a565b840191505092915050565b6000611d4e8383611d09565b905092915050565b6000602082019050919050565b6000611d6e82611ccc565b611d788185611cd7565b935083602082028501611d8a85611ce8565b8060005b85811015611dc65784840389528151611da78582611d42565b9450611db283611d56565b925060208a01995050600181019050611d8e565b50829750879550505050505092915050565b60006020820190508181036000830152611df28184611d63565b905092915050565b611e03816119b8565b8114611e0e57600080fd5b50565b600081359050611e2081611dfa565b92915050565b600080600060608486031215611e3f57611e3e6119f6565b5b6000611e4d86828701611e11565b9350506020611e5e86828701611e11565b9250506040611e6f86828701611e11565b9150509250925092565b600060208284031215611e8f57611e8e6119f6565b5b6000611e9d84828501611e11565b91505092915050565b60008060408385031215611ebd57611ebc6119f6565b5b6000611ecb85828601611e11565b9250506020611edc85828601611e11565b9150509250929050565b611eef81611c2e565b8114611efa57600080fd5b50565b600081359050611f0c81611ee6565b92915050565b60008060408385031215611f2957611f286119f6565b5b6000611f3785828601611efd565b9250506020611f4885828601611e11565b9150509250929050565b600081519050919050565b600082825260208201905092915050565b6000819050602082019050919050565b611f87816119b8565b82525050565b6000611f998383611f7e565b60208301905092915050565b6000602082019050919050565b6000611fbd82611f52565b611fc78185611f5d565b9350611fd283611f6e565b8060005b83811015612003578151611fea8882611f8d565b9750611ff583611fa5565b925050600181019050611fd6565b5085935050505092915050565b6000602082019050818103600083015261202a8184611fb2565b905092915050565b6000602082019050818103600083015261204c8184611bd5565b905092915050565b600080fd5b600080fd5b60008083601f84011261207457612073611a00565b5b8235905067ffffffffffffffff81111561209157612090612054565b5b6020830191508360018202830111156120ad576120ac612059565b5b9250929050565b6000806000604084860312156120cd576120cc6119f6565b5b600084013567ffffffffffffffff8111156120eb576120ea6119fb565b5b6120f78682870161205e565b9350935050602061210a86828701611e11565b9150509250925092565b60006020820190506121296000830184611c40565b92915050565b600080600080600080600060a0888a03121561214e5761214d6119f6565b5b600088013567ffffffffffffffff81111561216c5761216b6119fb565b5b6121788a828b0161205e565b9750975050602088013567ffffffffffffffff81111561219b5761219a6119fb565b5b6121a78a828b0161205e565b955095505060406121ba8a828b01611efd565b93505060606121cb8a828b01611e11565b92505060806121dc8a828b01611e11565b91505092959891949750929550565b60008115159050919050565b612200816121eb565b82525050565b60006101408201905061221c600083018d6119c2565b612229602083018c611c40565b818103604083015261223b818b611bd5565b9050818103606083015261224f818a611bd5565b905061225e60808301896119c2565b61226b60a08301886119c2565b61227860c08301876119c2565b61228560e08301866119c2565b6122936101008301856119c2565b6122a16101208301846121f7565b9b9a5050505050505050505050565b6122b981611c2e565b82525050565b6122c8816121eb565b82525050565b6000610140830160008301516122e76000860182611f7e565b5060208301516122fa60208601826122b0565b50604083015184820360408601526123128282611d09565b9150506060830151848203606086015261232c8282611d09565b91505060808301516123416080860182611f7e565b5060a083015161235460a0860182611f7e565b5060c083015161236760c0860182611f7e565b5060e083015161237a60e0860182611f7e565b5061010083015161238f610100860182611f7e565b506101208301516123a46101208601826122bf565b508091505092915050565b600060208201905081810360008301526123c981846122ce565b905092915050565b600080602083850312156123e8576123e76119f6565b5b600083013567ffffffffffffffff811115612406576124056119fb565b5b6124128582860161205e565b92509250509250929050565b600060e0830160008301516124366000860182611f7e565b506020830151848203602086015261244e8282611d09565b915050604083015184820360408601526124688282611d09565b915050606083015161247d60608601826122b0565b5060808301516124906080860182611f7e565b5060a08301516124a360a0860182611f7e565b5060c08301516124b660c0860182611f7e565b508091505092915050565b600060208201905081810360008301526124db818461241e565b905092915050565b7f4e487b7100000000000000000000000000000000000000000000000000000000600052602260045260246000fd5b6000600282049050600182168061252a57607f821691505b60208210810361253d5761253c6124e3565b5b50919050565b7f4e487b7100000000000000000000000000000000000000000000000000000000600052601160045260246000fd5b600061257d826119b8565b9150612588836119b8565b9250828202612596816119b8565b915082820484148315176125ad576125ac612543565b5b5092915050565b7f4e487b7100000000000000000000000000000000000000000000000000000000600052601260045260246000fd5b60006125ee826119b8565b91506125f9836119b8565b925082612609576126086125b4565b5b828204905092915050565b600061261f826119b8565b915061262a836119b8565b925082820390508181111561264257612641612543565b5b92915050565b7f4f6e6c79206f776e65722063616e2063616c6c20746869732066756e6374696f60008201527f6e00000000000000000000000000000000000000000000000000000000000000602082015250565b60006126a4602183611b9a565b91506126af82612648565b604082019050919050565b600060208201905081810360008301526126d381612697565b9050919050565b600081905092915050565b60006126f183856126da565b93506126fe838584611ac7565b82840190509392505050565b60006127178284866126e5565b91508190509392505050565b7f5468697320746f6b656e2063616e2774206265207374616b6564000000000000600082015250565b6000612759601a83611b9a565b915061276482612723565b602082019050919050565b600060208201905081810360008301526127888161274c565b9050919050565b60006060820190506127a46000830186611c40565b6127b16020830185611c40565b6127be60408301846119c2565b949350505050565b6127cf816121eb565b81146127da57600080fd5b50565b6000815190506127ec816127c6565b92915050565b600060208284031215612808576128076119f6565b5b6000612816848285016127dd565b91505092915050565b60008190508160005260206000209050919050565b60006020601f8301049050919050565b600082821b905092915050565b6000600883026128817fffffffffffffffffffffffffffffffffffffffffffffffffffffffffffffffff82612844565b61288b8683612844565b95508019841693508086168417925050509392505050565b6000819050919050565b60006128c86128c36128be846119b8565b6128a3565b6119b8565b9050919050565b6000819050919050565b6128e2836128ad565b6128f66128ee826128cf565b848454612851565b825550505050565b600090565b61290b6128fe565b6129168184846128d9565b505050565b5b8181101561293a5761292f600082612903565b60018101905061291c565b5050565b601f82111561297f576129508161281f565b61295984612834565b81016020851015612968578190505b61297c61297485612834565b83018261291b565b50505b505050565b600082821c905092915050565b60006129a260001984600802612984565b1980831691505092915050565b60006129bb8383612991565b9150826002028217905092915050565b6129d482611b8f565b67ffffffffffffffff8111156129ed576129ec611a1b565b5b6129f78254612512565b612a0282828561293e565b600060209050601f831160018114612a355760008415612a23578287015190505b612a2d85826129af565b865550612a95565b601f198416612a438661281f565b60005b82811015612a6b57848901518255600182019150602085019450602081019050612a46565b86831015612a885784890151612a84601f891682612991565b8355505b6001600288020188555050505b505050505050565b6000612aa8826119b8565b9150612ab3836119b8565b9250828201905080821115612acb57612aca612543565b5b92915050565b600082905092915050565b612ae68383612ad1565b67ffffffffffffffff811115612aff57612afe611a1b565b5b612b098254612512565b612b1482828561293e565b6000601f831160018114612b435760008415612b31578287013590505b612b3b85826129af565b865550612ba3565b601f198416612b518661281f565b60005b82811015612b7957848901358255600182019150602085019450602081019050612b54565b86831015612b965784890135612b92601f891682612991565b8355505b6001600288020188555050505b50505050505050565b7f596f75277265206e6f7420746865206f776e6572206f662074686520706f736960008201527f74696f6e00000000000000000000000000000000000000000000000000000000602082015250565b6000612c08602483611b9a565b9150612c1382612bac565b604082019050919050565b60006020820190508181036000830152612c3781612bfb565b9050919050565b7f506f736974696f6e20616c726561647920636c6f736564000000000000000000600082015250565b6000612c74601783611b9a565b9150612c7f82612c3e565b602082019050919050565b60006020820190508181036000830152612ca381612c67565b9050919050565b60008154612cb781612512565b612cc181866126da565b94506001821660008114612cdc5760018114612cf157612d24565b60ff1983168652811515820286019350612d24565b612cfa8561281f565b60005b83811015612d1c57815481890152600182019150602081019050612cfd565b838801955050505b50505092915050565b6000612d398284612caa565b915081905092915050565b6000604082019050612d596000830185611c40565b612d6660208301846119c2565b9392505050565b600081905092915050565b50565b6000612d88600083612d6d565b9150612d9382612d78565b600082019050919050565b6000612da982612d7b565b915081905091905056fea2646970667358221220b2b43a97a9f94e9fcf643cda4f43f7a8b540e24afaa1950194aa56acd01156a064736f6c63430008110033",
  "linkReferences": {},
  "deployedLinkReferences": {}
}